{
  "contractName": "Donation",
  "abi": [
    {
      "constant": true,
      "inputs": [],
      "name": "description",
      "outputs": [
        {
          "name": "",
          "type": "string"
        }
      ],
      "payable": false,
      "stateMutability": "view",
      "type": "function"
    },
    {
      "constant": true,
      "inputs": [],
      "name": "currentStatus",
      "outputs": [
        {
          "name": "",
          "type": "uint8"
        }
      ],
      "payable": false,
      "stateMutability": "view",
      "type": "function"
    },
    {
      "inputs": [],
      "payable": false,
      "stateMutability": "nonpayable",
      "type": "constructor"
    },
    {
      "constant": false,
      "inputs": [
        {
          "name": "_donor",
          "type": "address"
        },
        {
          "name": "_description",
          "type": "string"
        }
      ],
      "name": "startDonation",
      "outputs": [],
      "payable": false,
      "stateMutability": "nonpayable",
      "type": "function"
    },
    {
      "constant": false,
      "inputs": [
        {
          "name": "_recipient",
          "type": "address"
        }
      ],
      "name": "setRecipient",
      "outputs": [],
      "payable": false,
      "stateMutability": "nonpayable",
      "type": "function"
    },
    {
      "constant": false,
      "inputs": [
        {
          "name": "_description",
          "type": "string"
        }
      ],
      "name": "startTransporting",
      "outputs": [],
      "payable": false,
      "stateMutability": "nonpayable",
      "type": "function"
    },
    {
      "constant": false,
      "inputs": [],
      "name": "confirmDelevered",
      "outputs": [],
      "payable": false,
      "stateMutability": "nonpayable",
      "type": "function"
    },
    {
      "constant": false,
      "inputs": [],
      "name": "confirmReceived",
      "outputs": [],
      "payable": true,
      "stateMutability": "payable",
      "type": "function"
    },
    {
      "constant": false,
      "inputs": [
        {
          "name": "message",
          "type": "string"
        }
      ],
      "name": "throwWarning",
      "outputs": [],
      "payable": false,
      "stateMutability": "nonpayable",
      "type": "function"
    },
    {
      "constant": true,
      "inputs": [],
      "name": "getCurrentStatus",
      "outputs": [
        {
          "name": "",
          "type": "uint8"
        }
      ],
      "payable": false,
      "stateMutability": "view",
      "type": "function"
    }
  ],
  "bytecode": "0x608060405234801561001057600080fd5b5033600160006101000a81548173ffffffffffffffffffffffffffffffffffffffff021916908373ffffffffffffffffffffffffffffffffffffffff1602179055506000600260146101000a81548160ff0219169083600781111561007157fe5b0217905550610914806100856000396000f300608060405260043610610099576000357c0100000000000000000000000000000000000000000000000000000000900463ffffffff1680633bbed4a01461009e5780635abeaf7f146100e15780637284e4161461016a57806373fac6f0146101fa5780637732ca4a146102045780639aaa69c11461026d578063a3dd261914610284578063a4464e0b146102bd578063ef8a923514610326575b600080fd5b3480156100aa57600080fd5b506100df600480360381019080803573ffffffffffffffffffffffffffffffffffffffff16906020019092919050505061035f565b005b3480156100ed57600080fd5b50610168600480360381019080803573ffffffffffffffffffffffffffffffffffffffff169060200190929190803590602001908201803590602001908080601f0160208091040260200160405190810160405280939291908181526020018383808284378201915050505050509192919290505050610422565b005b34801561017657600080fd5b5061017f6104fd565b6040518080602001828103825283818151815260200191508051906020019080838360005b838110156101bf5780820151818401526020810190506101a4565b50505050905090810190601f1680156101ec5780820380516001836020036101000a031916815260200191505b509250505060405180910390f35b61020261059b565b005b34801561021057600080fd5b5061026b600480360381019080803590602001908201803590602001908080601f0160208091040260200160405190810160405280939291908181526020018383808284378201915050505050509192919290505050610653565b005b34801561027957600080fd5b50610282610723565b005b34801561029057600080fd5b506102996107db565b604051808260078111156102a957fe5b60ff16815260200191505060405180910390f35b3480156102c957600080fd5b50610324600480360381019080803590602001908201803590602001908080601f01602080910402602001604051908101604052809392919081815260200183838082843782019150505050505091929192905050506107f2565b005b34801561033257600080fd5b5061033b610830565b6040518082600781111561034b57fe5b60ff16815260200191505060405180910390f35b600160009054906101000a900473ffffffffffffffffffffffffffffffffffffffff1673ffffffffffffffffffffffffffffffffffffffff163373ffffffffffffffffffffffffffffffffffffffff161415156103bb57600080fd5b80600260006101000a81548173ffffffffffffffffffffffffffffffffffffffff021916908373ffffffffffffffffffffffffffffffffffffffff16021790555060028060146101000a81548160ff0219169083600781111561041a57fe5b021790555050565b600160009054906101000a900473ffffffffffffffffffffffffffffffffffffffff1673ffffffffffffffffffffffffffffffffffffffff163373ffffffffffffffffffffffffffffffffffffffff1614151561047e57600080fd5b6001600260146101000a81548160ff0219169083600781111561049d57fe5b0217905550816000806101000a81548173ffffffffffffffffffffffffffffffffffffffff021916908373ffffffffffffffffffffffffffffffffffffffff16021790555080600390805190602001906104f8929190610843565b505050565b60038054600181600116156101000203166002900480601f0160208091040260200160405190810160405280929190818152602001828054600181600116156101000203166002900480156105935780601f1061056857610100808354040283529160200191610593565b820191906000526020600020905b81548152906001019060200180831161057657829003601f168201915b505050505081565b600260009054906101000a900473ffffffffffffffffffffffffffffffffffffffff1673ffffffffffffffffffffffffffffffffffffffff163373ffffffffffffffffffffffffffffffffffffffff161415156105f757600080fd5b600580600781111561060557fe5b600260149054906101000a900460ff16600781111561062057fe5b14151561062c57600080fd5b6006600260146101000a81548160ff0219169083600781111561064b57fe5b021790555050565b600160009054906101000a900473ffffffffffffffffffffffffffffffffffffffff1673ffffffffffffffffffffffffffffffffffffffff163373ffffffffffffffffffffffffffffffffffffffff161415156106af57600080fd5b60028060078111156106bd57fe5b600260149054906101000a900460ff1660078111156106d857fe5b1415156106e457600080fd5b6004600260146101000a81548160ff0219169083600781111561070357fe5b0217905550816003908051906020019061071e929190610843565b505050565b600160009054906101000a900473ffffffffffffffffffffffffffffffffffffffff1673ffffffffffffffffffffffffffffffffffffffff163373ffffffffffffffffffffffffffffffffffffffff1614151561077f57600080fd5b600480600781111561078d57fe5b600260149054906101000a900460ff1660078111156107a857fe5b1415156107b457600080fd5b6005600260146101000a81548160ff021916908360078111156107d357fe5b021790555050565b6000600260149054906101000a900460ff16905090565b6007600260146101000a81548160ff0219169083600781111561081157fe5b0217905550806003908051906020019061082c929190610843565b5050565b600260149054906101000a900460ff1681565b828054600181600116156101000203166002900490600052602060002090601f016020900481019282601f1061088457805160ff19168380011785556108b2565b828001600101855582156108b2579182015b828111156108b1578251825591602001919060010190610896565b5b5090506108bf91906108c3565b5090565b6108e591905b808211156108e15760008160009055506001016108c9565b5090565b905600a165627a7a723058204bb6b6226bf1f680b3e22a543ee2af5ca8a4611fc03bc5823a843e55637ef93a0029",
  "source": "pragma solidity ^0.4.0;\r\n\r\ncontract Donation {\r\n    enum Status {\r\n        NONE,\r\n        START_DONATION,\r\n        MATCHED,\r\n        ENDED,\r\n        TRANSPORTING,\r\n        DELIVERED,\r\n        RECEIVED,\r\n        WARNING\r\n    }\r\n    \r\n    // addresses\r\n    address private donor;\r\n    address private organization;\r\n    address private recipient;\r\n    \r\n    Status public currentStatus;\r\n    string public description;\r\n    \r\n    modifier organizationOnly() {\r\n        require(msg.sender == organization);\r\n        _; // keep execute method's code\r\n    }\r\n    modifier donorOnly() {\r\n        require(msg.sender == donor);\r\n        _; // keep execute method's code\r\n    } \r\n    modifier recipientOnly() {\r\n        require(msg.sender == recipient);\r\n        _; // keep execute method's code\r\n    }\r\n    modifier checkStatus(Status stt) {\r\n        require(currentStatus == stt);\r\n        _; // keep execute method's code\r\n    }\r\n    \r\n    // Create a new transportation\r\n    constructor() public {\r\n        organization = msg.sender;\r\n        currentStatus = Status.NONE;\r\n    }\r\n    \r\n    function startDonation(address _donor, string _description) organizationOnly public {\r\n        currentStatus = Status.START_DONATION;\r\n        donor = _donor;\r\n        description = _description;\r\n    }\r\n    \r\n    function setRecipient(address _recipient) organizationOnly public {\r\n        recipient = _recipient;\r\n        currentStatus = Status.MATCHED;\r\n    }\r\n    \r\n    function startTransporting(string _description) organizationOnly checkStatus(Status.MATCHED) public {\r\n        currentStatus = Status.TRANSPORTING;\r\n        description = _description;\r\n    }\r\n    \r\n    function confirmDelevered() organizationOnly checkStatus(Status.TRANSPORTING) public {\r\n        currentStatus = Status.DELIVERED;\r\n    }\r\n    \r\n    function confirmReceived() recipientOnly checkStatus(Status.DELIVERED) public payable {\r\n        currentStatus = Status.RECEIVED;\r\n    }\r\n    \r\n    \r\n    function throwWarning(string message) public {\r\n        currentStatus = Status.WARNING;\r\n        description = message;\r\n    }\r\n    \r\n    function getCurrentStatus() view public returns (Status) {\r\n        return currentStatus;\r\n    }\r\n}",
  "sourcePath": "C:\\Users\\Admin\\dApps\\TechStartup\\contracts\\Donation.sol",
  "compiler": {
    "name": "solc",
    "version": "0.4.24+commit.e67f0147.Emscripten.clang"
  },
  "schemaVersion": "2.0.0",
  "updatedAt": "2018-06-24T17:04:02.035Z"
}